:020000040800F2
:1000000000000220D5140008251400082D14000853
:10001000351400083D1400084514000800000000D5
:100020000000000000000000000000004D14000867
:100030005B14000800000000691400087714000831
:1000400025150008251500082515000825150008A8
:100050002515000825150008251500082515000898
:100060002515000825150008251500082515000888
:100070002515000825150008251500082515000878
:1000800025150008251500082515000800000000AA
:10009000000000000000000000000000251500081E
:1000A0002515000825150008251500082515000848
:1000B0002515000825150008251500082515000838
:1000C0002515000825150008251500082515000828
:1000D000251500082515000825150008000000005A
:1000E000251500082515000825150008000000004A
:1000F00000000000000000000000000025150008BE
:100100000000000025150008251500082515000829
:1001100000000000000000000000000000000000DF
:1001200025150008251500082515000825150008C7
:10013000251500080000000000000000000000007D
:10014000000000000000000000000000251500086D
:100150002515000825150008251500082515000897
:10016000251500082515000800000000000000000B
:10017000000000000000000000000000000000007F
:10018000000000002515000800000000000000002D
:080190002515000825150008E3
:1001980010B5054C237833B9044B13B10448AFF3B9
:1001A80000800123237010BD0C0000200000000017
:1001B8001418000808B5034B1BB103490348AFF3F3
:1001C800008008BD0000000010000020141800087E
:1001D80081F0004102E000BF83F0004330B54FEAF0
:1001E80041044FEA430594EA050F08BF90EA020F5D
:1001F8001FBF54EA000C55EA020C7FEA645C7FEAF0
:10020800655C00F0E2804FEA5454D4EB5555B8BF12
:100218006D420CDD2C4480EA020281EA030382EA83
:10022800000083EA010180EA020281EA0303362D15
:1002380088BF30BD11F0004F4FEA01314FF4801CE8
:100248004CEA113102D0404261EB410113F0004FFA
:100258004FEA03334CEA133302D0524263EB4303B1
:1002680094EA050F00F0A780A4F10104D5F1200E4F
:100278000DDB02FA0EFC22FA05F2801841F10001AA
:1002880003FA0EF2801843FA05F359410EE0A5F17E
:1002980020050EF1200E012A03FA0EFC28BF4CF0AF
:1002A800020C43FA05F3C01851EBE37101F0004565
:1002B80007D54FF0000EDCF1000C7EEB00006EEB72
:1002C8000101B1F5801F1BD3B1F5001F0CD34908FC
:1002D8005FEA30004FEA3C0C04F101044FEA445253
:1002E80012F5800F80F09A80BCF1004F08BF5FEADA
:1002F800500C50F1000041EB045141EA050130BDBA
:100308005FEA4C0C404141EB0101013C28BFB1F5CB
:10031800801FE9D291F0000F04BF01460020B1FA16
:1003280081F308BF2033A3F10B03B3F120020CDAE9
:100338000C3208DD02F1140CC2F10C0201FA0CF0C7
:1003480021FA02F10CE002F11402D8BFC2F1200C2C
:1003580001FA02F120FA0CFCDCBF41EA0C019040E2
:10036800E41AA2BF01EB0451294330BD6FEA04042B
:100378001F3C1CDA0C340EDC04F11404C4F1200216
:1003880020FA04F001FA02F340EA030021FA04F328
:1003980045EA030130BDC4F10C04C4F1200220FA7F
:1003A80002F001FA04F340EA0300294630BD21FABD
:1003B80004F0294630BD94F0000F83F4801306BF83
:1003C80081F480110134013D4EE77FEA645C18BF77
:1003D8007FEA655C29D094EA050F08BF90EA020F0E
:1003E80005D054EA000C04BF1946104630BD91EA06
:1003F800030F1EBF0021002030BD5FEA545C05D109
:100408004000494128BF41F0004130BD14F5800447
:100418003CBF01F5801130BD01F0004545F0FE41BB
:1004280041F470014FF0000030BD7FEA645C1ABFF0
:10043800194610467FEA655C1CBF0B46024650EA27
:10044800013406BF52EA033591EA030F41F4002153
:1004580030BD00BF90F0000F04BF0021704730B5D9
:100468004FF4806404F132044FF000054FF00001AE
:1004780050E700BF90F0000F04BF0021704730B56F
:100488004FF4806404F1320410F0004548BF404244
:100498004FF000013EE700BF42004FEAE2014FEA99
:1004A80031014FEA02701FBF12F07F4393F07F4F74
:1004B80081F06051704732F07F4208BF704793F077
:1004C8007F4F04BF41F40021704730B54FF460748A
:1004D80001F0004521F000411CE700BF50EA01028D
:1004E80008BF704730B54FF000050AE050EA010236
:1004F80008BF704730B511F0004502D5404261EBA6
:1005080041014FF4806404F132045FEA915C3FF4E6
:10051800D8AE4FF003025FEADC0C18BF03325FEA83
:10052800DC0C18BF033202EBDC02C2F1200300FA34
:1005380003FC20FA02F001FA03FE40EA0E0021FA59
:1005480002F11444BDE600BF70B54FF0FF0C4CF447
:10055800E06C1CEA11541DBF1CEA135594EA0C0FF9
:1005680095EA0C0F00F0DEF82C4481EA030621EA34
:100578004C5123EA4C5350EA013518BF52EA03356F
:1005880041F4801143F4801338D0A0FB02CE4FF021
:100598000005E1FB02E506F00042E0FB03E54FF051
:1005A8000006E1FB03569CF0000F18BF4EF0010E49
:1005B800A4F1FF04B6F5007F64F5407404D25FEA45
:1005C8004E0E6D4146EB060642EAC62141EA5551F8
:1005D8004FEAC52040EA5E504FEACE2EB4F1FD0C3A
:1005E80088BFBCF5E06F1ED8BEF1004F08BF5FEAB8
:1005F800500E50F1000041EB045170BD06F000466A
:1006080046EA010140EA020081EA0301B4EB5C0416
:10061800C2BFD4EB0C0541EA045170BD41F480110E
:100628004FF0000E013C00F3AB8014F1360FDEBF33
:10063800002001F0004170BDC4F10004203C35DA0F
:100648000C341BDC04F11404C4F1200500FA05F392
:1006580020FA04F001FA05F240EA020001F0004233
:1006680021F0004110EBD37021FA04F642EB0601A9
:100678005EEA430E08BF20EAD37070BDC4F10C04D3
:10068800C4F1200500FA04F320FA05F001FA04F297
:1006980040EA020001F0004110EBD37041F1000183
:1006A8005EEA430E08BF20EAD37070BDC4F120058E
:1006B80000FA05F24EEA020E20FA04F301FA05F2F6
:1006C80043EA020321FA04F001F0004121FA04F29E
:1006D80020EA020000EBD3705EEA430E08BF20EA6E
:1006E800D37070BD94F0000F0FD101F000464000A8
:1006F80041EB010111F4801F08BF013CF7D041EA2A
:10070800060195F0000F18BF704703F0004652002D
:1007180043EB030313F4801F08BF013DF7D043EAFE
:100728000603704794EA0C0F0CEA135518BF95EAB4
:100738000C0F0CD050EA410618BF52EA4306D1D13B
:1007480081EA030101F000414FF0000070BD50EA5A
:10075800410606BF1046194652EA430619D094EAE4
:100768000C0F02D150EA013613D195EA0C0F05D1CE
:1007780052EA03361CBF104619460AD181EA030122
:1007880001F0004141F0FE4141F470014FF00000DA
:1007980070BD41F0FE4141F4780170BD70B54FF075
:1007A800FF0C4CF4E06C1CEA11541DBF1CEA1355F5
:1007B80094EA0C0F95EA0C0F00F0A7F8A4EB0504D7
:1007C80081EA030E52EA03354FEA013100F08880CE
:1007D8004FEA03334FF0805545EA131343EA126397
:1007E8004FEA022245EA111545EA10654FEA00264C
:1007F8000EF000419D4208BF964244F1FD0404F505
:10080800407402D25B084FEA3202B61A65EB030560
:100818005B084FEA32024FF480104FF4002CB6EB1D
:10082800020E75EB030E22BFB61A754640EA0C009D
:100838005B084FEA3202B6EB020E75EB030E22BFDD
:10084800B61A754640EA5C005B084FEA3202B6EB1E
:10085800020E75EB030E22BFB61A754640EA9C00DD
:100868005B084FEA3202B6EB020E75EB030E22BFAD
:10087800B61A754640EADC0055EA060E18D04FEA6B
:10088800051545EA16754FEA06164FEAC30343EA0B
:1008980052734FEAC2025FEA1C1CC0D111F4801FD8
:1008A8000BD141EA00014FF000004FF0004CB6E7D1
:1008B80011F4801F04BF01430020B4F1FD0C88BF70
:1008C800BCF5E06F3FF6AFAEB5EB030C04BFB6EB7B
:1008D800020C5FEA500C50F1000041EB045170BD6E
:1008E8000EF0004E4EEA113114EB5C04C2BFD4EB9B
:1008F8000C0541EA045170BD41F480114FF0000E1F
:10090800013C90E645EA060E8DE60CEA135594EA9A
:100918000C0F08BF95EA0C0F3FF43BAF94EA0C0F9D
:100928000AD150EA01347FF434AF95EA0C0F7FF412
:1009380025AF104619462CE795EA0C0F06D152EA66
:1009480003353FF4FDAE1046194622E750EA41064A
:1009580018BF52EA43067FF4C5AE50EA41047FF45B
:100968000DAF52EA43057FF4EBAE12E74A0011D20D
:1009780012F5001211D20DD56FF47873B3EB6252F1
:100988000ED44FEAC12343F0004343EA505323FAFD
:1009980002F070474FF00000704750EA013002D172
:1009A8004FF0FF3070474FF00000704753B94AB915
:1009B800002908BF00281CBF4FF0FF314FF0FF305F
:1009C80000F088B9ADF1080C6DE904CE00F006F826
:1009D800DDF804E0DDE9022304B070472DE9F047B3
:1009E800089D8E4604468846002B4AD18A421746FF
:1009F80062D9B2FA82F64EB1C6F1200301FA06F8BE
:100A080020FA03F3B74043EA0808B4404FEA174E08
:100A18001FFA87FCB8FBFEF1230C0EFB118843EA92
:100A2800084301FB0CF29A4209D9FB1801F1FF3087
:100A380080F0EA809A4240F2E78002393B449A1AF1
:100A4800A3B2B2FBFEF00EFB102243EA024300FB06
:100A58000CFC9C4509D9FB1800F1FF3280F0D680C8
:100A68009C4540F2D3803B44023840EA0140A3EB66
:100A78000C0300211DB1F3400022C5E90032BDE896
:100A8800F0878B4205D90DB1C5E900010021084660
:100A9800F5E7B3FA83F1002946D1734502D38242C0
:100AA80000F20581841A6EEB030201209046002DA6
:100AB800E5D0C5E90048E2E7002A00F09080B2FAE4
:100AC80082F6002E40F0A4808A1A030C4FEA174ED3
:100AD80080B2BCB20121B2FBFEFC0EFB1C2243EA31
:100AE800024304FB0CF29A4207D9FB180CF1FF38B9
:100AF80002D29A4200F2E080C4469B1AB3FBFEF28F
:100B08000EFB123340EA034302FB04F49C4207D96C
:100B1800FB1802F1FF3002D29C4200F2CA80024662
:100B28001B1B42EA0C40A5E7C1F120068B4022FAC4
:100B380006F71F430EFA01F420FA06F32EFA06FE12
:100B48004FEA1749234300FA01F81FFA87FCBEFB56
:100B5800F9F01C0C09FB10EE44EA0E4400FB0CFEF5
:100B6800A64502FA01F209D93C1900F1FF3A80F0D2
:100B78009C80A64540F2998002383C44A4EB0E04C0
:100B88001FFA83FEB4FBF9F309FB13444EEA04444D
:100B980003FB0CFCA44508D93C1903F1FF3E80F087
:100BA8008280A4457FD9023B3C4443EA0040A4EB41
:100BB8000C04A0FB02EC64457346E14662D35FD0A7
:100BC8005DB1B8EB030264EB090404FA06F622FAF5
:100BD80001F31E43CC40C5E9006400214FE7B1FB97
:100BE800F2FC010C41EA0E4180B240EA01423B4668
:100BF80038463C46B846BE462026B1FBF7F1A2EB84
:100C0800080241EA0C4166E7014618E710462CE75E
:100C1800C6F120022EFA02F3B740B14020FA02F2E0
:100C28004FEA174E0A43B3FBFEF8BCB20EFB18336B
:100C3800110C41EA034108FB04F9B04089454FEA29
:100C4800104380B23ED9791808F1FF3C01D289459A
:100C58001FD8A1EB0901B1FBFEF909FB04F80EFB53
:100C6800191192B242EA0142424529D2BA1809F151
:100C7800FF31C4D24245C2D2A9F102013A44BEE7CB
:100C8800F0459DD2BEEB02036CEB070C0138E14640
:100C980096E7A7EB09094944A8F1020CB1FBFEF954
:100CA80009FB04F8DBE773467FE7504666E708462A
:100CB800FDE63B44023A33E7ACF1020C3B441CE747
:100CC80049469CE7A1EB0901C446B1FBFEF909FBC3
:100CD80004F8C4E7704700BF70B50D4D0D4C641B98
:100CE800A4100026A64209D10B4D0C4C00F08EFD35
:100CF800641BA4100026A64205D170BD55F8043B1C
:100D080098470136EEE755F8043B98470136F2E775
:100D18004418000844180008441800084818000837
:100D280080B400AF064BD3F88830054A43F470030B
:100D3800C2F8883000BFBD465DF8047B704700BF2D
:100D480000ED00E080B487B000AF344B9B6803F03F
:100D58000C033B613B69082B11D03B69082B44D835
:100D68003B69002B03D03B69042B04D03DE02C4B9E
:100D78002C4A1A603DE02A4B2B4A1A6039E0274B6F
:100D88005B689B0D03F00103FB60244B5B6803F079
:100D98003F03BB60FB68002B0CD0234ABB68B2FB47
:100DA800F3F31E4A52689209C2F3080202FB03F3E6
:100DB8007B610BE01B4ABB68B2FBF3F3174A52682E
:100DC8009209C2F3080202FB03F37B61134B5B68D1
:100DD8001B0C03F0030301335B007B607A697B68BB
:100DE800B2FBF3F30E4A136003E00D4B0D4A1A6091
:100DF80000BF0A4B9B681B0903F00F030B4AD35C27
:100E08003B61074B1A683B6922FA03F3044A1360F3
:100E180000BF1C37BD465DF8047B704700380240B0
:100E2800000000200024F40000127A002C180008AA
:100E38002DE9B04F94B000AF00237B640023FB641E
:100E480000233B640023BB64794B9B6803F00C03CD
:100E5800082B0DD0082B00F2E180002B02D0042BC8
:100E680003D0DBE0734BBB64DBE0734BBB64D8E0BF
:100E78006F4B5B6803F03F037B646D4B5B6803F467
:100E88008003002B63D06A4B5B689B090022BB631D
:100E9800FA63BB6BC3F308033B6300237B63D7E9A7
:100EA8000C4522462B464FF000004FF00001590137
:100EB80041EAD261500102460B462146511A396176
:100EC800294663EB01037B614FF000024FF00003FA
:100ED800D7E904AB59468B01514643EA9163514621
:100EE8008A015146B2EB0108594663EB01094FF0FC
:100EF80000024FF000034FEAC90343EA58734FEA70
:100F0800C80290469946234618EB0303BB602B465C
:100F180049EB0303FB604FF000024FF00003D7E9F1
:100F2800024529464B02214643EAD15321464A024B
:100F3800104619467B6C0022BB62FA62D7E90A2385
:100F4800FFF734FD02460B461346FB6458E0384B66
:100F58005B689B09002218461146C0F308033B62F0
:100F680000237B62D7E9088942464B464FF00000D0
:100F78004FF00001590141EAD261500102460B4687
:100F88004146B2EB010A494663EB010B4FF0000200
:100F98004FF000034FEA8B1343EA9A634FEA8A1231
:100FA800B2EB0A0463EB0B054FF000024FF00003AD
:100FB800EB0043EA5473E20014461D464346E31827
:100FC8003B604B4645EB03037B604FF000024FF05C
:100FD8000003D7E9004529468B02214643EA91538D
:100FE80021468A02104619467B6C0022BB61FA61D1
:100FF800D7E90623FFF7DAFC02460B461346FB64E3
:101008000B4B5B681B0C03F0030301335B003B6471
:10101800FA6C3B6CB2FBF3F3BB6402E0054BBB64B8
:1010280000BFBB6C18465037BD46BDE8B08F00BF47
:10103800003802400024F40000127A0080B485B021
:1010480000AF78607B6803F00703FB600C4BDB683C
:10105800BB60BA684FF6FF031340BB60FB681A0217
:10106800BB68134343F0BF6343F40033BB60044AD7
:10107800BB68D36000BF1437BD465DF8047B70477A
:1010880000ED00E080B400AF044BDB681B0A03F0FE
:1010980007031846BD465DF8047B704700ED00E085
:1010A80080B483B000AF03463960FB7197F907300D
:1010B800002B0ADB3B68DAB20C4997F907301201BA
:1010C800D2B20B4483F800230AE03B68DAB208493D
:1010D800FB7903F00F03043B1201D2B20B441A76DA
:1010E80000BF0C37BD465DF8047B704700E100E0A7
:1010F80000ED00E080B489B000AFF860B9607A60B4
:10110800FB6803F00703FB61FB69C3F10703042BCA
:1011180028BF0423BB61FB690433062B02D9FB6992
:10112800033B00E000237B614FF0FF32BB6902FA0A
:1011380003F3DA43BB681A407B699A404FF0FF31EA
:101148007B6901FA03F3D9437B680B4013431846C4
:101158002437BD465DF8047B7047000080B582B037
:1011680000AF78607B68013BB3F1807F01D3012336
:101178000FE00A4A7B68013B53600F214FF0FF30B4
:10118800FFF78EFF054B00229A60044B07221A6076
:10119800002318460837BD4680BD00BF10E000E0B8
:1011A80080B582B000AF78607868FFF747FF00BF6E
:1011B8000837BD4680BD80B586B000AF0346B9602C
:1011C8007A60FB7300237B61FFF75CFF78617A68C4
:1011D800B9687869FFF78EFF024697F90F30114614
:1011E8001846FFF75DFF00BF1837BD4680BD80B5C4
:1011F80082B000AF78607868FFF7B0FF0346184602
:101208000837BD4680BD000080B500AF0E4B1B6897
:101218000D4A43F4007313600B4B1B680A4A43F4EE
:1012280080631360084B1B68074A43F4807313609C
:101238000320FFF7B5FF0F2000F008F800F01EF9B3
:101248000023184680BD00BF003C024080B582B034
:1012580000AF7860124B1A68124B1B7819464FF48E
:101268007A73B3FBF1F3B2FBF3F31846FFF7BFFF52
:101278000346002B01D001230EE07B680F2B0AD810
:10128800002279684FF0FF30FFF795FF064A7B6828
:101298001360002300E0012318460837BD4680BDCF
:1012A80000000020080000200400002080B400AFE7
:1012B800064B1B781A46064B1B681344044A1360F6
:1012C80000BFBD465DF8047B704700BF08000020E2
:1012D8002800002080B400AF374B5B68364A43F4DF
:1012E80080035360344B5A683349344B13404B6086
:1012F800314B5B68304A43F4485343F0080353606A
:101308002F4B1B682E4A23F0070313602C4B1B68D6
:101318002B4A43F003031360274B1B68264A43F408
:101328008033136000BF244B1B6803F40033002B89
:10133800F9D0214B1B68204A43F08073136000BF2B
:101348001D4B1B6803F00073002BF9D01A4B9B68E8
:10135800194A23F0F0039360174B9B68164A23F44D
:10136800E0539360144B9B68134A43F48053936093
:10137800114B9B68104A23F4604393600E4B0E4A4E
:101388009B6893600C4B9B680B4A23F003039360A4
:10139800094B9B68084A43F00203936000BF064B61
:1013A8009B6803F00C03082BF9D100BF00BFBD46B2
:1013B8005DF8047B704700BF003802400080FCFFE6
:1013C800003C024080B500AFFFF71EFFFFF782FF29
:1013D800FFF7B8FC0F20FFF739FF00BF80BD000002
:1013E80080B582B000AFFFF7EDFF00F099F9002358
:1013F8007B6002E07B6801337B607B68054A93422F
:10140800F8DD00F00BF9FFF713FD0346024A1360FD
:10141800F9E700BF7F841E002C00002080B400AFD5
:1014280000BFFDE780B400AF00BFFDE780B400AFA8
:1014380000BFFDE780B400AF00BFFDE780B400AF98
:1014480000BFFDE780B400AF00BFBD465DF8047B78
:10145800704780B400AF00BFBD465DF8047B70479D
:1014680080B400AF00BFBD465DF8047B704780B50F
:1014780000AFFFF71BFF00BF80BD000080B483B042
:1014880000AF00237B60104B5B6C0F4A43F4804332
:1014980053640D4B5B6C03F480437B607B680023D3
:1014A8003B60094B1B6C084A43F080531364064B9E
:1014B8001B6C03F080533B603B6800BF0C37BD4694
:1014C8005DF8047B704700BF00380240DFF834D075
:1014D800FFF726FC0C480D490D4A002302E0D458BA
:1014E800C4500433C4188C42F9D30A4A0A4C002366
:1014F80001E013600432A242FBD3FFF7EDFBFFF7D4
:101508006FFF704700000220000000200C00002040
:101518004C1800080C00002030000020FEE70000F6
:1015280080B483B000AF0346FB7197F90730002BF6
:101538000BDBFB7903F01F02074997F907305B09BA
:10154800012000FA02F241F8232000BF0C37BD4603
:101558005DF8047B704700BF00E100E080B483B011
:1015680000AF03463960FB7197F90730002B0ADB9F
:101578003B68DAB20C4997F907301201D2B20B4432
:1015880083F800230AE03B68DAB20849FB7903F0E4
:101598000F03043B1201D2B20B441A7600BF0C377A
:1015A800BD465DF8047B704700E100E000ED00E017
:1015B80080B400AF174B1B6B164A43F0010313634B
:1015C800154B1B68144A23F003031360124B1B6866
:1015D800114A43F0020313600F4BDB680E4A23F0F5
:1015E8000303D3600C4B9B680B4A43F003039360DF
:1015F800094B1B6A084A03F00F031362064B1B6A68
:10160800054A43F00103136200BFBD465DF8047B41
:10161800704700BF003802400000024080B500AFAC
:10162800FFF7C6FF274B1B6C264A43F001031364E0
:101638004FF080431B684FF0804223F00103136092
:101648004FF0804363229A624FF080434FF0FF329D
:10165800DA624FF080439B694FF0804203F0F30356
:1016680093614FF080439B694FF0804243F0010340
:1016780093614FF080431B6A4FF0804223F00A03C6
:1016880013624FF080431B6A4FF0804243F001031E
:1016980013624FF08043DB684FF0804243F002034F
:1016A800D36005211C20FFF759FF1C20FFF738FFE6
:1016B8004FF080431B684FF0804243F001031360F2
:1016C80000BF80BD0038024080B400AF114B1B6BD7
:1016D800104A43F0020313630F4B1B680E4A23F4AE
:1016E8007F2313600C4B1B680B4A43F42A231360B7
:1016F800094B1B6A084A43F008531362064B5B6A9E
:10170800054A43F02203536200BFBD465DF8047BDF
:10171800704700BF0038024000040240000000008B
:1017280090B583B000AF364B1B6C354A43F00403C9
:101738001364FFF7C9FFFFF77BFB78607868FEF753
:1017480089FE2DA3D3E90023FFF728F802460B46AC
:10175800104619464FF000022A4BFEF73DFD02469F
:101768000B46294C10461946FFF700F90346A362B9
:10177800254B44F61F62DA62234B9B69224A43F4E5
:10178800D04343F0680393611F4BDB691E4A43F45F
:10179800D04343F06803D3611B4B1B6A1A4A43F4D6
:1017A800885343F011031362174B1B68164A43F022
:1017B80080031360144B5B69134A43F08003536141
:1017C800114B4FF47A725A630F4B4FF47A729A6343
:1017D8000D4B4FF47A72DA630B4B4FF47A721A643A
:1017E800094B1B68084A43F00103136000BF0C371C
:1017F800BD4690BDAFF300800000000080842E41FC
:10180800003802400000F03F00080040F8B500BF73
:10181800F8BC08BC9E467047F8B500BFF8BC08BCC9
:041828009E46704721
:10182C000000000000000000010203040607080984
:08183C00A8F1FF7F010000008C
:04184400BD010008DA
:0418480099010008FA
:0C184C000024F400100000000100000067
:04000005080014D506
:00000001FF
